:020000040000FA
:10000000601B0020A9010000017D0000B301000079
:1000100000000000000000000000000000000000E0
:100020000000000000000000000000000D7D000046
:100030000000000000000000157D00001D7D000094
:10004000257D00002D7D0000357D00003D7D0000F8
:10005000457D00004D7D0000557D00005D7D000068
:10006000657D00006D7D0000757D00007D7D0000D8
:10007000857D00008D7D0000957D00009D7D000048
:10008000A57D0000AD7D0000B57D0000BD7D0000B8
:10009000C57D0000CD7D0000D57D0000DD7D000028
:1000A000E57D0000ED7D000000F002F800F050F862
:1000B0000CA030C8083824182D18A246671EAB467D
:1000C00054465D46AC4201D100F042F87E460F3EF8
:1000D0000FCCB6460126334200D0FB1AA246AB46EF
:1000E00033431847404400006044000000230024CC
:1000F00000250026103A01D378C1FBD8520700D35F
:1001000030C100D50B60704710B5642902D103F0EF
:1001100087FB10BD782902D103F0B8FB10BD63291D
:1001200002D103F06BFF10BD732902D103F06EFF03
:1001300010BD002010BD1FB503F0D8FE0400002044
:10014000002104F0CBF8401C60601FBD10B510BD4D
:1001500004F05CF81146FFF7EEFF01F095FB04F0A8
:1001600083F803B4FFF7F2FF03BC01F0EFFA0000DD
:1001700070B505460C46164602E00FCC0FC5103E82
:10018000102EFAD2082E02D303CC03C5083E042E4B
:1001900007D301CC01C5361F03E021782970641C08
:1001A0006D1C761EF9D270BD07488047074800478E
:1001B000FEE7FEE7FEE7FEE7FEE7FEE70448054947
:1001C000054A064B70470000ED010000A900000041
:1001D000600F0020601B00206013002060130020CF
:1001E00035480068704734484068704710B5334858
:1001F000816B334A1161C16B324841600021016259
:1002000041698907CA0F012191404269D207D20F83
:100210009140CAB2416940698904890E5143800204
:10022000294A800E504303F0B0FD2349086010BDF9
:10023000F8B5264F0126234D01280FD00020286253
:10024000214C1046214603F0A0FDC0B2012808D879
:10025000EE616F6101210A46134619E02E620C46D9
:10026000EFE70021E961FF2101318006800A0843A0
:10027000686168698007C00F86406869C007C00F61
:1002800086406869F2B28004810E68698002830E3C
:100290002046094C51436060584303F076FD2060CE
:1002A000F8BD30B4054B9C6B054D2C61DB6B054CE8
:1002B000636030BCBCE700000000002080FD03004C
:1002C000001200410010004100127A0000010200FB
:1002D000F0B52122002310265206904201D1674A30
:1002E00008E043221206904202D1644A403201E003
:1002F000624A8032012425460F689D402F40AF425C
:1003000043D10F79012F0DD045614D79AD070DD542
:100310009C001559AD08AD001551155902273D43F4
:1003200015510BE007692F430761EEE79D00575910
:10033000BF08BF0057515759274357514C7964079D
:1003400004D59C00155904273D4303E09C00155932
:100350000427BD4315514C79A40604D59C001559BA
:1003600020273D4303E09C0015592027BD4315512C
:100370004C79640604D59C00155940273D4303E0A1
:100380009C0015594027BD4315515B1CB342B1D3A6
:10039000F0BD3B490160002101716221417170474C
:1003A0000246126800200A4200D0012070470A0667
:1003B000920D012312189B02D21811600A0A9200B2
:1003C00010185A0080180160704710B50B069B0D7D
:1003D0000124CA431B18A4021B191A60090A8900C8
:1003E000081861004018026010BDF0B50126254DC7
:1003F000002334469C400C420ED0002810D0012827
:1004000011D0204C9F0080343C192768BF08BF00E2
:1004100027602768174327605B1C102BE9DBF0BDC2
:100420009C006419F1E79C006419276CBF08BF00A9
:100430002764276C17432764EEE77CB504461E4605
:100440000D466846FFF7A5FF6846009502716946AC
:100450002046FFF73DFF21204006844201D10020C5
:1004600006E043200006844201D1012000E0022082
:1004700032462946FFF7B9FF7CBD0000003000413D
:10048000FFFF00000020004110B504461848016B32
:1004900002290AD0006B032807D0FFF7A1FE2146EE
:1004A00003F073FC1349086110BDFFF79CFEF6E7EB
:1004B00010B5FFF7E9FF0F49886803228008800024
:1004C00010438860002010BD0A494A68D207FCD159
:1004D0000860704700B50346FFF7F6FF184600BDF9
:1004E000044841688907FCD50068C0B27047000025
:1004F00000100041006000400078704701707047B4
:1005000030B5002405E00D19ADB2455D1555641CEC
:10051000A4B29C42F7D330BD70B5002405E00E199B
:10052000155DB6B28555641CA4B29C42F7D370BD6C
:1005300070B514000FD01A4A83049E18F268400761
:1005400095B2184AC00A10430A4623462946FFF7C7
:10055000E3FF2819F06070BD70B514000FD0104A89
:1005600083049E18B26A400795B20F4AC00A10432E
:100570000A4623462946FFF7C3FF2819B06270BD1B
:1005800010B500290BD0064A83049B189A6A4007CD
:10059000054CC00A5118204389B20818986210BD52
:1005A00000020146000002460000034604480349D9
:1005B000016001218A07D1600160704751E5CC1AC2
:1005C000000C004070B50446082802D90020C04342
:1005D00070BDFB48A604301805461021FFF78EFFBA
:1005E0002846FFF789FF0028FAD1F5481F21183067
:1005F0003018FFF783FFF34801218288A1408A4326
:100600008280F14A002061005052EE49891D085550
:10061000EB48203034182046FFF76EFF0028FAD14F
:10062000012070BDF8B51C4616460F460546082841
:1006300002D90020C043F8BD012F06D0022F04D0FC
:10064000042F02D00420C043F8BD6007810FDF48AB
:10065000FAD1002C0CD0012F02D0022F08D103E0D8
:1006600021210C42F0D003E0A10601D52106EBD5F3
:100670002846FFF7A7FF21090901D1483943AF04F4
:1006800010383818FFF73AFF002E0AD1CD48D04A6B
:100690000688711C89B20180914202D1032189032D
:1006A0000180C748F03038184661C5480121381824
:1006B0000646FFF723FF3046FFF71EFF0028FAD15A
:1006C000C048E107C90F4288A94011434180012178
:1006D0008288A9408A438280BB4A00206900505228
:1006E000B849891D4855B64820303C182046FFF7C8
:1006F00003FF0028FAD068B2F8BD70B50646082896
:1007000002D90020C04370BDAD48B4041038201891
:10071000FFF7F2FE0007000F012802D00420C043BB
:1007200070BDA748203020180546FFF7E5FE1328C6
:1007300002D00220C04370BDA14802212018044607
:10074000FFF7DCFE2046FFF7D7FE0028FAD1284647
:10075000FFF7D2FE142805D03046FFF733FF032001
:10076000C04370BD012070BD70B50646082802D98F
:100770000020C04370BD9248B50410382818FFF718
:10078000BBFE0007000F012802D00420C04370BD4B
:100790008B48082128180446FFF7B0FE2046FFF7D3
:1007A000ABFE0028FAD1874901208A88B0408243F5
:1007B0008A80498808420CD0002070BD2046FFF78F
:1007C0009BFE00070BD53046FFF7FCFE0C20C04314
:1007D00070BD7B4810302C18794820302D182846E1
:1007E000FFF78AFE0028E9D1012070BDF7B582B07D
:1007F00002981446082803D90020C04305B0F0BD74
:1008000086046F4810383018FFF776FE0007000F97
:10081000012802D00420C043F0E7002C0CD0684827
:10082000203030180190FFF767FE172807D01C28EA
:1008300005D00620C043E1E70D20C043DEE7029863
:100840000125604F8540B888054211D05C481030C2
:100850003018FFF751FEC006C00EC10620D558481B
:10086000102118303018FFF749FEB888A843B88027
:10087000584830180090FFF73FFE8006000C844275
:1008800000D904460098406887B20198FFF734FE0B
:1008900017280DD01C280BD00298FFF793FEC8E74D
:1008A00000070BD50298FFF78DFE0C20C043A5E78B
:1008B00044484088054203D0BC4201D900209DE74E
:1008C000BC42DFD8224603990298FFF731FE3C482C
:1008D000202130180646FFF711FE3046FFF70CFEC8
:1008E0000028FAD1374881880D438580204685E766
:1008F000F7B582B002981446082802D90020C043F8
:100900007CE787042E4810383818FFF7F5FD0007FC
:10091000000F012802D00420C0436FE7002C19D03B
:100920002C4820303818FFF7E7FD8006000CA04265
:1009300000D20446224820303818009025483E183E
:10094000706A85B20098FFF7D7FD172815D01C28CC
:1009500003D00CE00D20C04350E7002D1AD13046E3
:10096000FFF7CAFD7168800289B2884205D10298FA
:10097000FFF728FE0620C04340E702990120884087
:1009800010494988084203D0002D03D1002035E7E3
:10099000002DD5D0A54200D22C46224603990298BC
:1009A000FFF7DAFD0648402138180546FFF7A6FD97
:1009B0002846FFF7A1FD0028FAD120461EE70000D7
:1009C0001000014608000020F0010020FAFFFFFFA0
:1009D000F0FF000000020146FFB583B003981E46F9
:1009E0001546082803D90020C04307B0F0BD840491
:1009F000EF482018FFF780FD0007000F022804D001
:100A0000042802D00420C043EFE7002D1DD0307829
:100A1000717800024018B17800024018F1780002A5
:100A2000C84202D10B20C043DFE70C9800280FD04A
:100A3000DF48303020180746FFF75EFD42280AD015
:100A4000222808D00620C043CFE70D20C043CCE7C2
:100A50000A20C043C9E7D74831782018FFF74EFD78
:100A6000D4487178401E2018FFF748FDD148B1786E
:100A7000801E2018FFF742FDCE48F178C01E2018D6
:100A8000FFF73CFDCB490C98273961180862C9482B
:100A9000D93020180190FFF72FFD8006000C854209
:100AA00000D90546039901208840009001984068CC
:100AB00086B23846FFF720FD002808D0BE490098CE
:100AC0004988084206D0B54204D900208DE70320AA
:100AD000C0438AE7B542E9D82A4604990398FFF74C
:100AE00027FDB3482021103020180746FFF706FDE8
:100AF000AF48283026183846FFF7FEFC0028FAD108
:100B0000AB48203024182046FFF7F6FCC006C00E84
:100B1000C10605D530461021FFF7F0FC284664E7F2
:100B20000007F0D530460821FFF7E8FC0C20C04351
:100B30005BE7FFB5002485B00646082802D9601E91
:100B400009B0F0BD9A48B5042818FFF7D5FC049009
:100B50000007000F022804D0042802D00420C0435C
:100B6000EEE70798002805D094487700C05B00287E
:100B700003D022E00D20C043E2E78E48D930281888
:100B800003908B48303028180125B5400290039817
:100B9000406A84B20298FFF7AFFC002806D086486E
:100BA0004088054207D0002C03D006E00320C04354
:100BB000C6E70020C4E7002CE9D07F480021801D53
:100BC00081550498B20441077948490F103015182F
:100BD00002291FD0042957D021463046FFF7D0FC08
:100BE0007648C45328464021FFF788FC2846FFF783
:100BF00083FC0028FAD17148C15B091B0904090C68
:100C0000C15305D06C480122801D815D114381557F
:100C1000204695E7694CE05B00285BD108226946D5
:100C20003046FFF799FC28464021FFF767FC28462D
:100C3000FFF762FC0028FAD1684601780898017035
:100C400068464178089841706846817808988170B4
:100C50006846C1780898C17068460E990079088086
:100C600001026846407908180E9908806846807924
:100C700001026846C0790818E05327E02246304652
:100C80000699FFF769FCADE74C4CE05B002821D1E9
:100C9000022269463046FFF75FFC28464021FFF7F5
:100CA0002DFC2846FFF728FC0028FAD1684600787A
:100CB000010268464078081880B24149E0538842F2
:100CC00004D93046FFF77EFC3E4839E73A49802098
:100CD000891D8855E45B07988442CFD90446CDE747
:100CE000F8B51546082802D90020C043F8BD840491
:100CF000304B304A2E485933273A0427E618A218B9
:100D00002018FF430B0003F0D4FA084F05091042E6
:100D10001316444F274829781F3802E025482978C0
:100D200023382018FFF7EAFB31E0288810612EE015
:100D3000288810622BE0FFF7DFFB0007000F012877
:100D40002DD13046FFF7D8FB002802D00120C04348
:100D5000F8BD17482221103020180546FFF7CEFBBA
:100D60001348203026180DE03046FFF7C5FB00077A
:100D700008D50F48082128302018FFF7BFFB0C20AA
:100D8000C043F8BD2846FFF7B7FB0028ECD101208F
:100D9000F8BDFFF7B1FB0007000F012801D038466E
:100DA000F8BD29783046BDE70920C043F8BD0000F2
:100DB000000001462701014608000020F001002044
:100DC000EA05000017FCFFFF704770477047704747
:100DD0000078704701707047F0B593B0E648FFF7B0
:100DE0008BFB1190E448401EFFF786FBE24C10900D
:100DF000A41E2046FFF780FB651E0F902846FFF7D4
:100E00007BFB0E90A01DFFF777FB0D90601DFFF799
:100E100073FB0C90D8480830FFF76EFB0B90D64858
:100E2000C01DFFF769FBD44E0A90B61D3046FFF790
:100E300063FB0990E01DFFF75FFB0890B01DFFF713
:100E40005BFB0790701DFFF757FB0690301DFFF707
:100E500053FB0590F01CFFF74FFB0490C648103081
:100E6000FFF74AFBC44F03900F373846FFF744FBA8
:100E70000290781EFFF740FB0190F01DFFF73CFB4E
:100E800000908021BD48FFF739FBBC48FFF734FBD9
:100E9000A01C1199FFF732FB601C1099FFF72EFB85
:100EA00020460F99FFF72AFB28460E99FFF726FBED
:100EB000A01D0D99FFF722FB601D0C99FFF71EFB8B
:100EC000B01C0B99FFF71AFB701C0A99FFF716FB71
:100ED00030460999FFF712FBE01D0899FFF70EFB5A
:100EE000B01D0799FFF70AFB701D0699FFF706FB77
:100EF000301D0599FFF702FBF01C0499FFF7FEFA7D
:100F0000781C0399FFF7FAFA38460299FFF7F6FAC8
:100F1000781E0199FFF7F2FAF01D0099FFF7EEFA3B
:100F200013B0F0BD10B5044693484130FFF7E4FA22
:100F3000207091483D300068608010BD10B5017888
:100F40000446002903D08C484130FFF7D7FA8A497C
:100F500060883D31086010BD10B58848FFF7CCFAB5
:100F600010BD70B50446C720044202D00020C04323
:100F700070BD824D2846FFF7BFFA20430146284640
:100F8000FFF7BCFA002070BD10B504467A48FFF7A1
:100F9000B3FA20707848401EFFF7AEFA60707648CA
:100FA000801EFFF7A9FAA0707348C01EFFF7A4FACD
:100FB000E0707148001DFFF79FFA20716E48C01C59
:100FC000FFF79AFA60716C480830FFF795FAA07342
:100FD0006948C01DFFF790FAE0736748801DFFF76E
:100FE0008BFA20746448401DFFF786FA60746248EB
:100FF0000C30FFF781FAA0725F480B30FFF77CFAE4
:10100000E0725D480A30FFF777FA20735A480930DA
:10101000FFF772FA607358481030FFF76DFAA0714D
:1010200055480F30FFF768FAE07153480E30FFF76C
:1010300063FA207250480D30FFF75EFA6072504834
:101040000178A1744178E17481782175C078607568
:101050004B48401E0078A07510BD10B504460178BD
:101060004548FFF74BFA44486178401EFFF746FABF
:101070004148A178801EFFF741FA3F48E178C01E41
:10108000FFF73CFA3C482179001DFFF737FA3A4850
:101090006179C01CFFF732FA3748A17B0830FFF7AF
:1010A0002DFA3548E17BC01DFFF728FA3248217C34
:1010B000801DFFF723FA3048617C401DFFF71EFAC0
:1010C0002D48A17A0C30FFF719FA2B48E17A0B3042
:1010D000FFF714FA2848217B0A30FFF70FFA264859
:1010E000617B0930FFF70AFA2348A1791030FFF736
:1010F00005FA2148E1790F30FFF700FA1E48217AFE
:101100000E30FFF7FBF91C48617A0D30FFF7F6F956
:101110001B48A17C0170E17C4170217D8170617D63
:10112000C1701749A07D491E087010BD10B50C464E
:10113000030003F0BEF80604080C1014181D08463E
:10114000FFF78BFF12E00846FFF71EFF0EE008785E
:10115000FFF707FF10BDFFF7FFFE207006E008460F
:10116000FFF7ECFE02E00846FFF7DCFE002010BDB2
:101170000020C04310BD000003600046002300466D
:101180001900002070B5D94C054620882861618877
:101190002846FFF70CF9012000F0EBFB6188284698
:1011A000FFF713F9012000F0E4FB70BDF8B5074626
:1011B0000020CE4D0446460069883846FFF7F7F810
:1011C000012000F0D6FB69883846FFF7FEF80120C1
:1011D00000F0CFFB29883846FFF7E2F83043641C63
:1011E000102CE8D3F8BD70B5C04C05462088686166
:1011F000012000F0BEFB61882846FFF7D8F80120E7
:1012000000F0B7FB61882846FFF7DFF8012000F007
:10121000B0FB70BDF8B5074616462020801B814004
:101220000C46B24D18E02988002C384602DAFFF748
:10123000BEF801E0FFF7C9F8012000F09AFB6988C9
:101240003846FFF7B4F8012000F093FB6988384670
:10125000FFF7BBF86400761E002EE4D1F8BD70B530
:101260000C461646002105462022C943FFF7D2FF4F
:10127000042205212846FFF7CDFF9C48052241683E
:101280002846FFF7C7FF052221462846FFF7C2FF81
:10129000022211462846FFF7BDFF1022314628469C
:1012A000FFF7B8FF2846FFF76DFF70BDF8B50025C2
:1012B00043273F06002400212022C9433846FFF778
:1012C000A9FF042206213846FFF7A4FF0522214684
:1012D0003846FFF79FFF052201213846FFF79AFFA6
:1012E0003846FFF780FF3846FFF760FF064638466E
:1012F000FFF748FF002E02D07D48864209D1641CCA
:10130000082CD8DD6D1CEDB27AA002F017FA022D80
:10131000D0D32046F8BD7CB5054614460E46684637
:10132000FFF737F8304620430090012069460871E6
:101330002846FEF7CDFF012221461046FFF755F85B
:10134000012231461046FFF750F8684D6E802C8020
:10135000FFF7ACFF68607CBD70B514460A460546D1
:101360001E21FFF77CFF22461F212846FFF777FF4B
:1013700070BD70B566A002F0E1F943242406704AFE
:1013800070492046FFF7E8FF6E4A6F493432204625
:10139000FFF7E2FF51216D4A09012046FFF7DCFF0C
:1013A0006B4A6C492046FFF7D7FF6A496A4A491CD5
:1013B0002046FFF7D1FF4E4A66497F3A0A39204658
:1013C000FFF7CAFF654D66492A462046FFF7C4FF6E
:1013D00029212A4689022046FFF7BEFF0322120276
:1013E00060492046FFF7B8FF5E490122D202491C3E
:1013F0002046FFF7B1FF5A490422FD392046FFF786
:10140000ABFF8122120158492046FFF7A5FF0521B5
:101410002F2209022046FFF79FFF152552492D0272
:101420002A46FB392046FFF797FF4E494F4AFB31CA
:101430002046FFF791FF4C494D4AF9392046FFF706
:101440008BFF49494B4AF8392046FFF785FF46494B
:10145000494AF6392046FFF77FFF43492A46F539C6
:101460002046FFF779FF3B49444A11312046FFF7F8
:1014700073FFFF2242492046FFF76EFF3F4A414972
:1014800071322046FFF768FF32496F22120209319C
:101490002046FFF761FF324907229202891C20464D
:1014A000FFF75AFF124A2B491F3A0B392046FFF724
:1014B00053FF2549344A0D312046FFF74DFFA52142
:1014C0002022C9002046FFF747FF22495022491D2C
:1014D0002046FFF741FF9122120200212046FFF72C
:1014E0003BFF2AA002F02AF970BD00004000002056
:1014F000FFFF00000D0A706879206964206465743C
:10150000656374206572726F7221210D0A000000FC
:101510005B5954383131315D205374617274696E96
:1015200067205954383131312050485920696E694B
:101530007469616C697A6174696F6E2E2E2E0A006F
:101540002A2A00002102000006250000F0640000A5
:10155000F070000011050000F0780000040A00009F
:1015600001A4000008A1000001A300001414000061
:101570001515000014130000042D0000FF0F0000DB
:10158000030400001FA500001A3C00005B595438FA
:101590003131315D20595438313131205048592092
:1015A000696E697469616C697A6174696F6E2063D0
:1015B0006F6D706C657465640A00000010B54D4C69
:1015C0004D482178FEF79AFF4B486178401EFEF7A0
:1015D00095FF4948A178801EFEF790FF4648E178C4
:1015E000C01EFEF78BFF444808342178001FFEF729
:1015F00085FF41486178401FFEF780FF3E48A17893
:10160000801FFEF77BFF3C48E178C01FFEF776FFA6
:101610003948241F21780838FEF770FF3648617872
:101620000938FEF76BFF3448A1780A38FEF766FFE9
:101630003148E1780B38FEF761FF10BD10B52F4C33
:1016400080212046FEF75AFF2046FEF755FFFFF7A0
:10165000B5FF284C2848393421781038FEF74EFF62
:10166000254861781138FEF749FF2348A1781238E0
:10167000FEF744FF2048E1781338FEF73FFF1E488D
:1016800021790C38FEF73AFF1B4861790D38FEF7D7
:1016900035FF10BD10B5194C80212046FEF72EFFF6
:1016A0002046FEF729FF134C1348393421781038AF
:1016B000FEF724FF104861781138FEF71FFF0E482F
:1016C000A1781238FEF71AFF0B48E1781338FEF7BD
:1016D00015FF094821790C38FEF710FF064861799B
:1016E0000D38FEF70BFF10BD0248C01FC169491C31
:1016F000C16170474F000020136000460023004680
:101700007047704770477047704770477047704721
:101710007047704770477047704770477047704711
:101720007047704770477047704770477047704701
:1017300070477047704770477047704710B5C0B228
:10174000FEF7C8FE10BD0020C0437047FEE7000052
:1017500038B501F03DFD04468EA001F0EFFF8EA1EB
:101760009AA001F0EBFF9BA001F0E8FFA3A000907E
:10177000A37D627D217DA3A001F0E0FF86A193A05F
:1017800001F0DCFF38BDF0B58FB001F021FD04465B
:10179000002000900190182102A802F09CFA182164
:1017A00008A802F098FAE07D0025FF2859D1207E94
:1017B000FF2856D1607EFF2853D100236A46194680
:1017C000184601F0D1F968460078FF2807D169462C
:1017D0004978FF2903D169468978FF2910D0E0753F
:1017E0006846407820766846807860766846C0789B
:1017F000A07668460079E07668464079207731E047
:101800008B4888212746017002AE403789A001F03D
:1018100095FF0025FEF764FE70556D1CEDB2152D89
:10182000F8D308A902A800F060F900280BD0B87B13
:10183000002803D008A965A001F080FF182102A8A4
:1018400002F049FAE2E7002001F0A7F9002322465E
:1018500017321946184601F0CEF901F0BBFC01F031
:10186000A7FD012528460FB0F0BD01B582B0FEF7F7
:10187000B7FC754902F089FA0299484300E0401E1E
:1018800000900028FBD10EBD01F0A2FC044601F03F
:101890006DFC6E4900200A46FEF703FD0A20FFF7A3
:1018A000E4FF01F0CDF901F00FFAFFF795FAFEF72A
:1018B00097FC654902F069FA6549086001F02CFC63
:1018C00064480069800701D5FEF770FE01F03DFD18
:1018D000FFF759FF2646A036707A01270025012818
:1018E0000CD1022001F09CFA21467572AC31002027
:1018F00002F043FA2A20075501F05AFD0726360365
:101900003068401C0DD020462030817A00292CD030
:1019100001F035FC002804D03168706881F3088834
:1019200080472A2005554034A07B002801D0FFF7CE
:101930000FFF01F0EEFDA07B002801D001F06BFD50
:1019400045480770002001F022FC444C00F035FFB0
:101950002078002806D0002001F025FC012001F0AD
:1019600022FC257001F09FF9F0E7877201F020FD5D
:10197000D7E701B581B000200090FF210198053123
:101980004843009902E000BF491C00918842FAD800
:101990000CBD00000D0A00003D3D3D3D3D3D3D3D7F
:1019A0003D3D3D3D3D3D3D3D3D3D3D3D3D3D3D3D67
:1019B0003D3D3D3D3D3D3D3D3D3D3D3D3D3D3D3D57
:1019C0003D3D3D3D3D3D3D3D3D3D000025730D0A06
:1019D00000000000205B57373530305D20536572C2
:1019E00069616C20746F2045746865726E6574203F
:1019F0004465766963650D0A0000000053746162F6
:101A00006C650000203E3E204669726D776172650C
:101A10002076657273696F6E3A20426F6F7420256D
:101A2000642E25642E25642025730D0A0000000015
:101A3000A0000020494E505554204649525354208E
:101A40004D41433F0D0A00001027000000127A00AC
:101A50000020004600F001409C000020B001002062
:101A6000F8B500270D4604460F70F84E09E002F065
:101A700055F802462046316802F072F8002804D07A
:101A8000361D30680028F2D129E03068002826D0C1
:101A9000EE48301A8005060E2B2E07D02C2E11D0C2
:101AA000A11C284602F014F83046F8BD207A0D2813
:101AB00015D1607A0A2812D10622A11C284602F00C
:101AC000ABF8F1E7002002E02954401CC0B2211815
:101AD00089780D29F8D12118C9780A2901D0FF2069
:101AE000F8BD2F5428184770DEE7F0B597B00E46C2
:101AF000074601F06DFB0024149010A804762546DB
:101B00000421304602F0E5F8D1A13846F4E304A9F7
:101B1000FFF7A6FF0746FF287BD004A801F0FEFFD1
:101B200080B200906846007C002826D0C7498822F1
:101B30002439097811426DD03B0002F0BAFB3AF328
:101B4000F2F2F1F0EFEEEFEDECEBEAE9E8E7E6E5D3
:101B5000E4E4E4E4E4E4E3E2E1E0DFDEDDDCDBDA7C
:101B6000D9D8D7D6D5D4D3D2D2D1D2D2D2D2D2D23A
:101B7000D2D2D06AEFD2D2CFCE6AB449B8000858D8
:101B80003B000178317040787070B61C02F091FB18
:101B90003A1E30454A4EEB53EB575B5F62676A75FE
:101BA0007E87EAEAEB91EAEA93ECF1F4E6E5E4E316
:101BB000E2E1E0DFDEDDDCDBDAD9D9D8D9D9D7D66E
:101BC000D5D4D3D2D1D0EBCFCECDCCCB1498149BDF
:101BD000149A1499407E1B7FD27E897E6F460FC770
:101BE00014989CA1037EC27D304601F0B5FDD2E180
:101BF000A0A1A2A002F072F800281498807D0090A5
:101C00001498437D027D06D09EA1304601F0A4FDCC
:101C1000C1E1F9E3F9E39EA1F7E7149A9FA13046E9
:101C2000521D09E114986030027902E014982030C6
:101C3000C2E09BA182E114986030C278F9E7149861
:101C40004030827BF5E7149840300278F1E7149831
:101C5000413001E01498433041780078BFE0149897
:101C60002130BAE01498149920300078C97F00918F
:101C700001901498837F427F19E014982030027AF3
:101C8000C179019200918379427910E01498203053
:101C90000279C178019200918378427807E0149824
:101CA0006030427A017A01920091C37982797DA1F4
:101CB0000FE07F4ABDE714984079002852D014996C
:101CC0001498097FC07E009014980191837E421D74
:101CD00078A1304601F040FD5DE1B8E3A0E386E382
:101CE0005EE3CFE34CE33DE32CE31EE305E3E4E2F4
:101CF000D7E2CAE2B3E2A5E297E288E27AE251E2F1
:101D000047E23AE22CE200E215E2FFE1E9E1D0E14C
:101D1000C6E1B9E1AFE1A1E193E185E176E377E1E5
:101D200069E165E14EE140E13BE12CE11FE1F9E0D1
:101D300018E113E104E1F9E0EDE0E5E0DDE0D2E0F7
:101D4000CEE07FE06FE064E059E054E04EE049E02F
:101D500041E03BE036E031E02CE027E022E00BE020
:101D600007E001E06BE000E114982330417B007B49
:101D700035E0149821302BE0149860304179002927
:101D800007D0807A00285AD0149A44A130466A328B
:101D900052E014982030827B417B01920091037BBA
:101DA000C27A84E714984030C27942E714984030F0
:101DB000027A3EE714984030427A3AE7149840306D
:101DC000827A36E714984030C27A32E7149823308A
:101DD000417C007C03E014982330417D007D0A02A1
:101DE000024326E714982030427E22E7149835A15A
:101DF0002030827EA2E014988030027F19E7149888
:101E000032A1A0300078009014988030C37F827F88
:101E1000FBE614984030C07B002810D0149A1FA114
:101E200030464F3208E014984030407E002806D0FB
:101E3000149A1AA13046593201F08EFCABE02022F0
:101E400026A17BE0812000029BE00000C40000206E
:101E50000D0A0000253032583A253032583A2530E4
:101E600032583A253032583A253032583A253032F5
:101E700058000000446576656C6F700053746162B1
:101E80006C65000025642E25642E2564000000008A
:101E900025642E25642E2564646576002573000074
:101EA0002564000025642E25642E25642E256400FB
:101EB000D60B000025732D25303278253032782559
:101EC000303278002530325800000000253032587A
:101ED00025303258253032580000000025630000BC
:101EE000412040024DE0FB4888210078084201D0A3
:101EF000102046E04320400243E0F6488821007865
:101F00000842F7D020203CE0F248882100780842BF
:101F1000F0D0802035E01498EF49403040798000BF
:101F20000A580AE014984030427982E6149820302A
:101F3000807A8100E74808304258E8A130467BE7C4
:101F4000E448017888200142D4D0149923314A7B97
:101F50000B7B11021943012904D012E01498803040
:101F6000427F66E62120C0010BE0002261E6D948ED
:101F7000882100780842BDD0149801212030817258
:101F80009020044307E01498D5A14030437B027BA6
:101F9000304601F0E1FBD44804420AD0B61E357049
:101FA00065E214988030C27E43E62120800204431B
:101FB000BCE7CEA1304601F023FE304601F0AEFD75
:101FC000861954E21498C07D002807D11498007E29
:101FD000082803D11498407EDC2809D0149AC4A1A3
:101FE00004A8173200F01CFDB9E1852000023DE293
:101FF000832000023AE200F0BAFC10A908760099AA
:102000000129F2D10128F0D81499603108712EE22B
:1020100000F0ADFC10A9087600990129E5D103284C
:10202000E3D8149920310BE100F0A1FC10A9087647
:1020300000990129D9D10128D7D814996031C870E5
:1020400015E200F094FC10A9087600990129CCD182
:102050000128CAD814994031887308E200F087FC3F
:1020600010A9087600990129BFD10128BDD814997B
:1020700040310870FBE104A801F0DDFC9D49884275
:10208000B3D81499413107E004A801F0D4FC994970
:102090008842AAD8149943310870000A4870E6E1D2
:1020A00004A801F0C8FC934988429ED814992131B4
:1020B000FFE015A904A800F0F7FB002895D010A8B0
:1020C000017D1498417710A8417D1498817710A85C
:1020D000817D1498C17710A8C17D149820300170BB
:1020E000C5E115A904A800F0DFFB0028E6D014988C
:1020F00010A9097D2030417110A9497D817110A975
:10210000897DC17110A9C97D0172B0E115A904A82A
:1021100000F0CAFB0028D1D0149810A9097D203006
:10212000417010A9497D817010A9897DC17010A9E5
:10213000C97D01719BE115A904A800F0B5FB002839
:10214000BCD0149810A9097D6030817110A9497D17
:10215000C17110A9897D017210A9C97D417286E102
:1021600000990E298CD8202804D0149804AA5BA1C9
:10217000401D0EE11498457179E104A801F05BFC63
:102180005C49884285D8149923310873000A487342
:102190006DE104A801F04FFC5649884285D8149996
:1021A00021317AE015A904A800F07EFB002811D0A7
:1021B000149810A9603045711498097D2030C172BF
:1021C00010A9497D017310A9897D417310A9C97DAA
:1021D00081734CE114980121603041716946097C9A
:1021E000202905D0149804A96A3001F071FC3EE161
:1021F00085723CE104A801F011FC009980B202292B
:10220000B0D80E28AED814994031C8712FE100F033
:10221000AEFB10A908760099012900D0E5E6012857
:10222000FCD814994031087221E100F0A0FB10A9FC
:10223000087600990129F1D10228EFD8149940318C
:10224000487214E100F093FB10A908760099012967
:10225000E4D10128E2D814994031887207E100F0F6
:1022600086FB10A9087600990129D7D10428D5D872
:10227000149940314A79012A05D1032803D0042852
:1022800001D0CD72F3E0C872F1E004A801F0D3FBF5
:1022900018498842C2D8149923310874000A487436
:1022A000E5E004A801F0C7FB12498842B6D81499AA
:1022B00023310875000A4875D9E004A801F0AEFB87
:1022C000009980B20329A9D8FF28A7D814992031F2
:1022D0004876CCE0A0000020C0010020257300005B
:1022E0002564256400000000B08000000D0A000095
:1022F0002E3A2D00FFFF0000BBE0009802288DD190
:1023000004A800F01CFB002888D016A904A800F03F
:102310004CFB10A8017E149820308176002902D051
:1023200001218177A3E08577A1E000F020FB10A9CF
:102330000876009901298BD101288BD81499803116
:10234000087794E0009806288FD104A800F0F7FAE7
:102350000028D9D0149904A89E3100F026FB00284B
:10236000D2D084E00099092994D8202804D0149868
:1023700004AAF7A14F300CE014984030C57376E002
:102380000099092986D8202806D0149804AAF0A11B
:10239000593001F0E1F96AE014984030457666E082
:1023A00004A801F048FB192109038842149904D9B3
:1023B0000020AC3101F0E1FC17E6AC3101F0DDFCAE
:1023C00014980121A03041724020044314981499BC
:1023D00020300078C97F00910190DE4A1498029263
:1023E000837F427FDCA1304601F0B6F93FE000F088
:1023F000BEFA10A9087600990129DDD10128DBD8A1
:1024000014998031487732E042E03EE000F0AFFAC4
:1024100010A9087600990129CED10128CCD826E050
:1024200016A904A800F0C1FA10A9097E0A07080934
:10243000120F10A90A7600990229BDD8012ABBD82B
:102440000128B9D81499403108734A730FE004A8E1
:1024500001F0E4FA009980B20329ADD80028ABD08E
:10246000FF28A9D814998031C87600E00443BEA1A2
:10247000002001F0EDFA002801D0FFF748FB2046CC
:1024800017B0F0BD81200002F0E743204002EDE7E5
:1024900021208002EAE710B500220621FEF720FC89
:1024A00010BDF3B591B0064600F092FE054600203F
:1024B0000E90AE48FEF720F80027AD4C1728277085
:1024C00008D002DC00283ED19BE01828FCD01C2854
:1024D000F9D193E0A5481038FEF70EF8C00707D0F1
:1024E00001206070A7800146A0480838FEF706F872
:1024F000A078012803D10220FFF7CDFFA7709D48E7
:10250000406A0204120C1ED012980F90314602202D
:10251000FEF7EEF980B230182038C77705A93046AB
:10252000FFF79EFA2B2866D1062293A105A801F099
:10253000A1FA002808D029460622173105A801F083
:1025400099FA002803D06BE02078802101E0207800
:1025500088210843207000064DD5687E2B7FEA7ED7
:10256000A97E01AC0FC4287E00908148EB7DA43089
:10257000C26A83A10F9801F0EFF80F9C0A3605A9F3
:1025800030460A34FFF76CFA2C2849D16846007DA2
:10259000202803D15920405D002806D02946593112
:1025A00005A801F09BFB00283AD105A801F0B6FA76
:1025B000021D3146204601F02FFB05A801F0AEFABE
:1025C000851905A82D1D01F0A9FA0419241D21461D
:1025D0002846FFF78AFA0E9005A801F09FFA0546F3
:1025E000204601F09BFA28180E3082B20220129980
:1025F000FEF7FCF814E0002013B0F0BD0220FEF757
:10260000B3F80220FDF7DEFF524A2123521E0121BA
:102610000220FEF707F8022802D16770FEF76DF876
:102620000E98E9E7F3B599B0054600F0D1FD0446F0
:1026300000204F4E169030705648FDF75DFF002881
:102640007ED0222826D15448406A0204120C21D0A0
:1026500015A800901A9F17AB29460120FEF769FACA
:1026600080B2281800212038C17705A92846FFF735
:10267000F7F92B286BD106223FA105A801F0FAF942
:10268000002808D021460622173105A801F0F2F9EA
:10269000002803D08FE03078802101E03078882155
:1026A0000843307000067DD5607E237FE27EA17EE8
:1026B00001AE0FC6207E00902D48E37DA430C26A93
:1026C0002FA1384601F048F80A3505A928460A37EF
:1026D000FFF7C6F92C286ED16846007D202803D16B
:1026E0005920005D002806D02146593105A801F087
:1026F000F5FA00285FD105A801F010FA021D29465D
:10270000384601F089FA05A801F008FA451905A82C
:102710002D1D01F003FAC419241D21462846FFF798
:10272000E4F9169005A801F0F9F90546204601F0F4
:10273000F5F928180E3082B210A8808A17A300E09D
:1027400033E0009001201A99FEF746F933E029E0C2
:102750002573000052C30000465725642E25642EC1
:1027600025642E25643A25640D0A000030000946D0
:10277000A000002000020946FFFFFFFFFFFF00004E
:1027800025732563256325632563256325630D0A6A
:10279000000000003000054600020546FFFFFFFF75
:1027A0000000000000201BB0F0BD0123374A0221C9
:1027B0001846FDF737FF1698F5E770B500F008FDED
:1027C000044633493348FFF72DFF06463049314868
:1027D000FFF767FE0546354328042AD4002D28D08C
:1027E000280702D500F076FA0FE0E80602D500F0DF
:1027F000DFFD0AE0E80408D527A000F09FFF0020D5
:1028000000F0CBF9012000F0C8F9680623D50220BA
:1028100000F006FB002180280CD0A920015521469C
:10282000AC31002001F0A9FA00F0C2FD0420FDF750
:10283000C9FE70BDA92001552146AC31002001F030
:102840009CFA01202034A07200F0B2FDFF20F53088
:10285000FFF70BF801E02806EBD500F054FA70BD45
:102860000E484178002910D082880D4B00219A42F1
:1028700003D28288521C828000E081808288094BCA
:102880009A4202D3012282708180704751C30000B6
:10289000000C0020000A00200D0A0000A00000200B
:1028A000FFFF0000983A0000F3B5002583B02E46E4
:1028B0002C46039801F032F9C7B200200190009035
:1028C000F81F092839D22EE000F020FF0168039894
:1028D000405D095C202902D02E2811D02DE00A216C
:1028E0004C43303C01198CB2FF2C26D8009901AA28
:1028F00050540098401CC0B2009003281DD810E02E
:10290000FF2C1AD8761CF6B2042E16D8002401A883
:1029100001F084F8049989192039C87700200190C2
:1029200000906D1CEDB2BD42CED301A801F076F847
:1029300004998855012005B0F0BD0020FBE770B573
:10294000054600240CE000F0E1FE0068295D415CD2
:1029500088004840000601D4002070BD641CE4B229
:10296000284601F0DBF8A042EDD8012070BD10B57B
:102970000446112801D2FF2010BD00F0C7FE0168F7
:10298000085D202805D0204628383F2803D2513C36
:1029900008E0303C06E02046402C04D9472C02D900
:1029A0000446313CE4B2204610BDF3B587B007467B
:1029B000002501F0B3F8C6B2F00706D1102E04D8F6
:1029C0003878002801D0002426E0002009B0F0BDAE
:1029D000385D00F0A3FEC1B26A4611700391381948
:1029E0000491407800F09AFEC0B26A465070049993
:1029F0003929039901D9373900E03039C9B239286A
:102A000001D9373800E030380901014308984155B1
:102A10006D1CA41CEDB2E4B2B442D9D30120D5E7B9
:102A2000F7B584B00546002401F078F82978C0B2E3
:102A3000002901D0112802D0002007B0F0BD0026E7
:102A400001AF6000201841190322684601F0E4F844
:102A500068468178002904D0059801F001F8002823
:102A6000EBD068468670FFF76AFF0028E5D0391979
:102A70006846FFF79AFF641CE4B2062CE1D30622F5
:102A800001A9069801F0C8F80120D6E770B5314CCD
:102A9000256866172660304EB047256070BD10B5BA
:102AA0000021420C16D02D4A904204D32C4A1042E9
:102AB00001D1102406E02A4A5242904209D3800CE8
:102AC00007D1112472B600231A462046FFF7DEFF15
:102AD00062B610BD12240146F4E710B5410C07D1CF
:102AE00072B6002301461A461320FFF7CFFF62B6E5
:102AF00010BD70B514460A46184B1A49984208D3BF
:102B0000850C06D1FF250135AC420DD8E3188B4268
:102B10000AD8002C01D1884206D801214904FF239C
:102B2000411A5B02994201D2002070BD72B6234661
:102B300001462220FFF7AAFF62B6204670BD10B5FD
:102B40000346002002E01C5C0C54401C9042FAD367
:102B500010BD000000E200E00110FF1F00FE0300B6
:102B60000001FCFFFFFF030070B50D461446010095
:102B70000BD001290DD0022901D0032804D11A4617
:102B800021462846FFF7DBFF70BD062221462A4872
:102B9000F8E71A4621462948F4E7F8B50026002848
:102BA00017D0012817D0022819D0032816D10125E3
:102BB0006D041927002420034019FFF78EFF641CC1
:102BC000A4B2BC42F7D338034519002E06D0002426
:102BD0000EE0194800E01948FFF761FFF8BD07252E
:102BE0002D03E6E720024019FFF759FF641CA4B249
:102BF000B442F7D3F8BD70B51C460B46154601002C
:102C00000BD0012910D0022901D0032804D122467B
:102C100029461846FFF76DFF70BD0020FFF7BDFF86
:102C2000062229460448F5E70120FFF7B6FF2246B1
:102C300029460248EEE7000000FE030000FF030003
:102C40001F490020C860704770B51D4C6088401C4B
:102C50006080FFF705FE00F05BF91A480025007858
:102C6000002808D0E088401C80B2E080642802D3AD
:102C700001202070E5807D21C900608801F085F881
:102C8000002905D16580A088401CA080FEF72CFD9E
:102C90003C21A08801F079F8002903D1A580A06823
:102CA000401CA06070BD10B5054CE068411CE1609F
:102CB000232803D3FFF7C8FF0020E06010BD704752
:102CC000B00100209C00002010B5E1204002FDF77B
:102CD000EFFB10BD10B500F07DFA00F069FB10BDF0
:102CE00010B59F48FDF708FC172808D01C2806D00F
:102CF0000220FDF767FC0120FDF764FC10BD0220F7
:102D0000FDF732FDF7E7FFF7EBFFBFF34F8F964973
:102D10009448C860BFF34F8FFEE7944800210170CC
:102D200081708180C1804170C1707047F3B581B0FE
:102D300000F04EFA06460020044600900198A9369D
:102D400087048B483818FDF7D7FB884D172808D023
:102D500002DC002862D152E0182850D01C285DD136
:102D600044E0834810383818FDF7C6FBC0070AD086
:102D70000120A8700220FFF710FF7D4801210838CC
:102D80003818FDF7BBFBE878012833D079483818AC
:102D9000406A0404240C41D00120C002844200D9BE
:102DA0000446F01C00F0DEFFE9680A19904201D2E7
:102DB000401A84B2224602990198FDF799FD84B227
:102DC000E868210A0019E860684601704470022230
:102DD00069460198FDF70AFD0027EF80F01C00F01E
:102DE000C1FFE968884219D8AF80AF700198FDF73C
:102DF000BBFC13E00198FDF7B7FC0020FEBD2123CA
:102E00005D4A01210198FDF70DFC014601988142C0
:102E100004D10020E8600198FDF76FFC2046FEBD5C
:102E2000F8B5044600F0D4F90646A93600F0D0F90A
:102E3000054630784535202700280FD0F01C00F0DB
:102E400091FF19221203002801D0904208D9697A13
:102E5000012903D10146494800F070FC4020F8BD2B
:102E6000022C02D0042C46D039E0697A012903D122
:102E7000014643A000F062FC00203C4C0121A06010
:102E800021704E490420FFF751FF03000DD00720A9
:102E9000A16800030918494A0220FFF7ACFEA168A7
:102EA00080B20818A0600020A080607801280BD0B4
:102EB000E07801280DD0FFF7F6FEF01C00F052FF7D
:102EC000A1688842DDD80BE0687A012807D13CA0D0
:102ED00003E0687A012802D147A000F02FFC4027C8
:102EE000F01C00F03FFF2149896888420CD16A7AC2
:102EF000012A04D007E04E4800F020FCAEE702466D
:102F00004CA000F01BFC8027FFF707FF3846F8BDF8
:102F100030B51648534A0578534B01240021012D42
:102F20000CD18588954203D285886D1C858000E090
:102F3000818085889D4201D3447081808578012DF0
:102F40000CD1C588954203D2C288521CC28000E0D1
:102F5000C180C2889A4201D3C470C18030BD0000D4
:102F6000300009460400FA0500ED00E0C801002029
:102F7000300001460002014652C3000074440000C4
:102F8000203E2053454743503A46575F55504441F1
:102F900054453A4E4554574F524B202D20466972A6
:102FA0006D776172652073697A653A205B25645D8F
:102FB0002062797465730D0A000000000002002091
:102FC000203E2053454743503A46575F55504441B1
:102FD00054453A4641494C4544202D204669726D7E
:102FE00077617265207570646174652074696D65C0
:102FF0006F75740D0A000000203E20534547435072
:103000003A46575F5550444154453A4641494C452C
:1030100044202D204E6574776F726B20646F776E3D
:103020006C6F61642074696D656F75740D0A0000C2
:10303000DC440000203E2053454743503A46575F4A
:103040005550444154453A53554343455353202D1D
:10305000202564202F2025642062797465730D0A71
:1030600000000000FFFF000088130000FEB50446CA
:10307000032818D2524E6500705B0090012069460B
:1030800008715048A700C059FDF722F94D48715BFF
:10309000001F025DC01E005DFDF7A7F94948715B86
:1030A000C059FDF784F9FEBD70B5012321241D022E
:1030B0006406002229462046FDF7BFF9656170BD10
:1030C00010B501232120002219464006FDF7B5F96D
:1030D00010BD70B5012500246D0221267606294613
:1030E0003046FDF75DF9002801D0012070BD0520B4
:1030F000FEF7BBFB641CE4B2052CF0D3002070BDCE
:1031000070B5012321245D02640600222946204671
:10311000FDF793F9656170BD10B50120FFF7CFFD94
:1031200001229203432051000006FEF7F4F8FEF757
:1031300020F90020FFF7C3FDFFF7E2FFFFF7C9FF0B
:10314000002811D000201F4908390870FFF7B8FF88
:10315000FFF7AAFF0020FFF789FF0120FFF786FF96
:103160000220FFF783FF10BD0120ECE71649022083
:10317000086316498860704770470020704710B593
:10318000FF21212001314006FDF70AF910BD10B5DD
:10319000032807D20A4A4100515A0A4A80001058AF
:1031A000FDF713F910BD032808D20649820089589B
:1031B0004A68034B4000185A42404A60704700007A
:1031C00008430000E00100204011004100200041C0
:1031D000E9487047F8B5E84EFA203070002070706A
:1031E000B0700125F570044630710F21701D00F09C
:1031F00070FD0B22E1A1701D00F00EFD357504205D
:103200007075B075C0217177A822B2770B23DA48A8
:10321000F37702262030067041708270C37005710A
:10322000FF2646718671C671047245728572C1723D
:10323000027343730321D44A8173C11C0A73130AB6
:103240004B73431C1A74160A5E740C74260A4E746F
:10325000CE4E1E75360A5E750C75230A4B75447684
:103260008476C476047744778477C47720300570F9
:10327000C74B411C0B701B0A4B70C11C0A70120A11
:103280004A70447184710C21C17105724472847258
:10329000C4720473447385730A21193000F019FD58
:1032A000B5480A214F3000F014FDB34808266030BD
:1032B000C470047144718671C671067246723221FF
:1032C0000A3000F006FDAC482B218030C676057729
:1032D000447706468177C177203631700F20771CFE
:1032E000387000207870F01C0570290A41700C219C
:1032F0003971002179710471210A41717472A549F3
:10330000401E0172090A417201460A31002000F094
:1033100034FD502038740020787430461430F57431
:103320001E21044600F0D5FC13229BA1204600F08C
:1033300073FC304632302821044600F0CAFC2022BB
:103340009AA1204600F068FCF8BD10B5FFF714FF05
:10335000FA23894A00210120FFF706FC864A002152
:10336000062317320846FFF7FFFB834C607821786D
:103370000002084302D09549884207D1FFF72AFF8F
:10338000FA237D4A00210120FFF735FC0121217538
:1033900004206075A075784C4034E07A032805D08D
:1033A000042803D0FFF7E9FE607110BD617110BD04
:1033B000F0B5714E002540367D27BFB02C46FF008A
:1033C000FA236D4A00210120FFF715FCFA236A4613
:1033D00000210120FFF7C8FBFA226946664800F089
:1033E00049FB002811D0641CB07BE4B2002803D054
:1033F000214677A000F0A2F93846FEF736FA052CF0
:1034000001D2012DDCD13FB0F0BD0125F4E710B5AC
:1034100000F002FC10BD30B589B0574D03A9012062
:10342000FDF784FE6846427C017CC07B6B4607C387
:103430006846837B427B017B6FA000F07FF92846C2
:103440002330417B007B090201436846407D0090A8
:1034500001916846037DC27C817C71A000F06EF909
:103460006846407F00906846037FC27E817E75A0DB
:1034700000F064F96846407E00906846037EC27D95
:10348000817D76A000F05AF908A84078009008A83D
:1034900003786846C27F817F76A000F04FF92C4602
:1034A0002034607A01282DD06520415D601C0129FF
:1034B000417C0FD0027C0802A17B10430190009157
:1034C000637B227BE17A71A000F038F9607A0328EF
:1034D00009D017E00A02007C294602436A3176A02F
:1034E00000F02CF90EE0E07A002808D1207B0028BB
:1034F00005D1607B002802D1A07B002807D078A0EE
:1035000000F01CF975A000F019F909B030BD79A0E0
:10351000F6E710B5184C86B02146062217316846EA
:10352000FFF775FF214601A804221D310230FFF785
:103530006EFF214603A8042221310230FFF767FF06
:10354000214602A8042225310230FFF760FF214600
:1035500004A8042266310230FFF759FF6034207955
:10356000002801D0022000E0012069468875002073
:10357000FDF7DCFD06B010BD000E002057495A5380
:1035800050452D54314C000088130000B80B00004A
:10359000581B000052C300006465766963652E778E
:1035A000697A77696B692E6E657400002F77697A86
:1035B00037353073722F66772F5737353030785F55
:1035C0005332455F4170702E62696E00FFFF00004C
:1035D000203E20446576436F6E666967207570648F
:1035E000617465206661696C65642C205265747233
:1035F000793A2025640D0A002023204D41433A20CA
:10360000253032583A253032583A253032583A254A
:103610003032583A253032583A253032580D0A00A7
:103620002023204950203A2025642E25642E25642D
:103630002E2564202F20506F72743A2025640D0AC5
:10364000000000002023204757203A2025642E2523
:10365000642E25642E25640D0A00000020232053CB
:103660004E203A2025642E25642E25642E25640DD7
:103670000A000000202320444E533A2025642E25C2
:10368000642E25642E25640D0A00000020232044AA
:10369000657374696E6174696F6E2049503A2025B4
:1036A000642E25642E25642E2564202F20506F72F1
:1036B000743A2025640D0A00202320446573746940
:1036C0006E6174696F6E20446F6D61696E3A20257A
:1036D00073202F20506F72743A2025640D0A000069
:1036E0002023232055445020313A31204D6F64650A
:1036F0000D0A00002023232055445020313A4E204B
:103700004D6F64650D0A00007047000010B500F0B1
:10371000EDFB001D10BD00BFC50B000010B5044639
:10372000FFF7F4FF0068005D000704D5DF2C02D02E
:103730002046203810BD204610BD00000FB40549BA
:1037400010B503AA029800F065FC10BC08BC04B0D8
:1037500018470000980000200FB41CB5074B06AABC
:103760007B4469460090059800F025FC00206946DE
:1037700000F034FC1CBC08BC04B0184779080000F9
:1037800070B5044685690068C10601D5302600E0A1
:103790002026C00707D070BD62683046A1689047F8
:1037A000206A401C20626D1EF6D570BD70B50446BF
:1037B00085690078C00707D170BD6268A1682020C4
:1037C0009047206A401C20626D1EF6D570BD70B512
:1037D0000C460546012A05D02878800600D5EA69FE
:1037E000002302E0012305E05B1C934202D2E05C6F
:1037F0000028F9D1A869E618C01AA861286AC0187B
:1038000028622846FFF7BCFF04E06A682078A968B0
:10381000641C9047B442F8D32846FFF7C7FF70BD39
:10382000F7B5002575291068009914A611D0C04677
:10383000C046002802DA404211A608E00099096853
:103840008A0701D50FA602E0490704D50EA6012577
:1038500001E0C046C046009F0024243704E000F089
:1038600049FC30313955641C0028F8D12B463246CA
:103870002146009800F042FBFEBD00000000000061
:103880002D0000002B0000002000000070B5044651
:103890000D4621461068C046C0462188090502D55C
:1038A0000F4A7A4402E00E4A7A440E32234600213F
:1038B000243305E006070009360F965D5E54491C67
:1038C0000028F7D120780023000705D5702D03D0FC
:1038D000002901D002231132204600F00FFB70BDF9
:1038E000680A0000F3B50446002081B0206220463B
:1038F000E168884700287DD0252802D06268A16849
:1039000083E0454F00257F442046E1688847202812
:10391000064608DB312E06D2B81920380078002878
:1039200001D00543F0E7A80701D504208543002016
:10393000E0610746A0612A2E0AD0304600F0C6FC9E
:10394000002827D0B8000019303E0090866119E0A9
:103950000298BA00121902C8916102902046E168EB
:103960008847012F064617D1E06900281FDA20207A
:1039700085431CE000980A2180694843009980191A
:10398000303888612046E1688847064600F09EFC92
:103990000028EFD1012F0AD02E2E08D12046E16851
:1039A00088470646202005437F1C022FC3DBA06901
:1039B000002803DA4042A06101200543E80701D056
:1039C00010208543002E24D030464138192803D8D2
:1039D0000120C00205432036204625603146029A68
:1039E0001546FCF791FB00280CD0012807D0ED1DEF
:1039F000E80800E00DE0C0000830029077E72D1DD8
:103A0000029574E762683046A1689047206A401CBE
:103A10006CE7206AFEBD00002C0A000070B5064667
:103A200000F068FA0468054630460A22002100F0DA
:103A300005FB2C6070BD70B5064600F05BFA0468AB
:103A4000054630460A22002100F0F8FA2C6070BDCD
:103A500010B5024A00F02AFB10BD0000EC01002066
:103A6000401ECAB24178401C8A4202D00029F9D1D6
:103A700000207047034610B50B439B070FD1042A63
:103A80000DD308C810C9121FA342F8D018BA21BA22
:103A9000884201D9012010BD0020C04310BD002A7A
:103AA00003D0D30703D0521C07E0002010BD0378D9
:103AB0000C78401C491C1B1B07D103780C78401C58
:103AC000491C1B1B01D1921EF1D1184610BD0000EC
:103AD000034670B502460B439B070FD10E4CE6011F
:103AE00000E008C208C91D1B9D433542F9D0D9B278
:103AF0001170521C00290DD01B0AF8E70B78491CE5
:103B00001370521C002B05D00B78491C1370521CEB
:103B1000002BF3D170BD00000101010130B5441C40
:103B200003E00178401C00290DD08107F9D10B4B2F
:103B3000DD0104C8D11A91432940FAD0001B0A06BE
:103B400003D0C01E30BD001B30BD0A0401D0801E52
:103B500030BD0902FCD0401E30BD00000101010152
:103B60000346F0B50B439B072DD1244DEF01042AEA
:103B700029D308C810C95E1B9E43121F3E4017D0B0
:103B8000D8B2E1B2401A3106014310D198B2A1B2C5
:103B9000401A310401430AD118022102000A090A1D
:103BA000401A3102014302D1180E210E401AF0BD15
:103BB000A342DCD018BA21BA884201D90120F0BD55
:103BC0000020C043F0BD002A01D10020F0BD0378E1
:103BD0000C78401C491C002B0DD0A3420BD1521E67
:103BE00009D003780C78401C491C002B03D0A34259
:103BF00001D1521EEBD1181BF0BD000001010101E3
:103C0000421E5378521C002BFBD10B78491C1370B9
:103C1000521C002BF9D17047F8B5042A2CD3830726
:103C200012D00B78491C0370401C521E83070BD026
:103C30000B78491C0370401C521E830704D00B787C
:103C4000491C0370401C521E8B079B0F05D0C91ADC
:103C5000DF002023DE1B08C90AE0FCF789FAF8BD63
:103C60001D4608C9FD401C46B4402C4310C0121F1D
:103C7000042AF5D2F308C91A521EF0D40B78491C55
:103C80000370401C521EEAD40B78491C0370401C80
:103C9000012AE4D409780170F8BD01E004C0091FCD
:103CA0000429FBD28B0701D50280801CC90700D0F4
:103CB0000270704700290BD0C30702D00270401C6D
:103CC000491E022904D3830702D50280801C891E65
:103CD000E3E70022EEE70022DFE70000024670B5CE
:103CE0000A4392072AD11E4DEE0104C808C9541B8D
:103CF0009443344017D0D0B2D9B2401A21060143C0
:103D000010D190B299B2401A210401430AD1100295
:103D10001902000A090A401A2102014302D1100EB9
:103D2000190E401A70BD9A42DFD010BA19BA8842F3
:103D300001D9012070BD0020C04370BD02780B780E
:103D4000401C491C002A09D09A4207D102780B78FE
:103D5000401C491C002A01D09A42EFD0D01A70BDF5
:103D6000010101018178C278037809041206114328
:103D700042781002184308437047020A08704A70DC
:103D8000020C8A70020ECA707047002203098B422F
:103D90002CD3030A8B4211D300239C464EE00346EA
:103DA0000B433CD4002243088B4231D303098B429E
:103DB0001CD3030A8B4201D394463FE0C3098B42D4
:103DC00001D3CB01C01A524183098B4201D38B012D
:103DD000C01A524143098B4201D34B01C01A5241D0
:103DE00003098B4201D30B01C01A5241C3088B4215
:103DF00001D3CB00C01A524183088B4201D38B0000
:103E0000C01A524143088B4201D34B00C01A5241A1
:103E1000411A00D201465241104670475DE0CA0F78
:103E200000D04942031000D34042534000229C4638
:103E300003098B422DD3030A8B4212D3FC22890142
:103E400012BA030A8B420CD3890192118B4208D318
:103E5000890192118B4204D389013AD0921100E07A
:103E60008909C3098B4201D3CB01C01A524183098E
:103E70008B4201D38B01C01A524143098B4201D3BB
:103E80004B01C01A524103098B4201D30B01C01AE6
:103E90005241C3088B4201D3CB00C01A5241830860
:103EA0008B4201D38B00C01A5241D9D243088B42B6
:103EB00001D34B00C01A5241411A00D20146634659
:103EC00052415B10104601D34042002B00D54942BD
:103ED000704763465B1000D3404201B50020C046E6
:103EE000C04602BD704770477047000000487047E9
:103EF0001C0F002000487047FC0E0020FFB5044650
:103F00000D4681B0243000902168880604D5102227
:103F1000E0699143216000E00120A84201DD471BD8
:103F200000E000270498A1697A191018081AA06106
:103F30002078C00602D42046FFF722FC002608E0C5
:103F400003986268A168805D9047206A401C761CD7
:103F5000206204988642F3DB2078C0060AD520460A
:103F6000FFF70EFC06E06268A16830209047206AE7
:103F7000401C206238467F1E0028F4DC07E00098D1
:103F80006268A168405D9047206A401C2062284614
:103F90006D1E0028F3DC2046FFF708FC20780006A1
:103FA00002D5022005B0F0BD0120FBE701694A1CE3
:103FB00002610878704700B58FB002910021059129
:103FC0000549019379440391114604906846FFF72F
:103FD00089FC0FB000BD0000E5FFFFFF0A6810700C
:103FE000521C0A60704710B54369002B02D0C046CE
:103FF000C04601E0FFF7EBFB012010BD127801463F
:1040000024310A7000224A700122ECE71168002274
:10401000D243E8E7084B70B50D467B44FFF7CBFF72
:1040200004462846FDF78FFB002802D00020C0433D
:1040300070BD204670BD00001FD7FFFFF7B50F46CB
:104040000026009C2578641C002D05D0FFF75EFB40
:104050000068405DC007F5D12B2D02D02D2D18D062
:10406000641E3946029A204600F05CF8002F04D006
:104070003968A14201D100993960710502240029F3
:104080000BDA4042002803DDFFF734FF0460A0078D
:10409000FEBD012080020643E3E70028F8DAFFF7BF
:1040A00029FF04600048FEBDFFFFFF7FF8B51546FD
:1040B0000E46040003D12C68002C00D10CA420462D
:1040C00000F094F80419207800280ED027463146D5
:1040D000384600F07AF804192078002802D0002031
:1040E0002070641C38462C60F8BD0027FAE70000F9
:1040F0000000000001468008081A02091018020A90
:104100001018020C1018C008820012185200891AE8
:1041100001E0401C0A390A29FBD270470048704769
:10412000FC0E0020F7B5154682B00027029C2078CF
:10413000641C0197302802D0002D15D015E020789E
:104140000127641C782804D0582802D0002D09D0FB
:104150000BE0002D01D0102D07D12078002710256D
:10416000641C02E0082500E00A250026009610E005
:10417000009901276943081829467143020C80B24F
:1041800000908E183804864201D3012001902078D7
:10419000641C294600F059F80028E9DA0398002841
:1041A00005D0002F01D0641E00E0029C046001983D
:1041B000002806D0FFF79EFE02210160C81E05B050
:1041C000F0BD009930040843F9E730B503461D7887
:1041D000002D03D00A4603E0AC4201D1181A30BDCD
:1041E0001478521C002CF7D15B1CF0E730B5034665
:1041F0001D78002D08D00A461478521C002C03D0DC
:10420000AC42F9D15B1CF3E7181A30BD7546FFF7D5
:1042100085FFAE46050069465346C008C000854686
:1042200018B020B5FBF7CAFF60BC00274908B646A6
:104230000026C0C5C0C5C0C5C0C5C0C5C0C5C0C5B5
:10424000C0C5403D49008D4670473A2800D23038FD
:10425000202302469A43412A01D310463738884228
:1042600001D30020C043704710B50446C046C04685
:104270002046FBF776FF10BD30B58C180278401C45
:1042800013071B0F01D10378401C120906D10278D5
:10429000401C03E00578401C0D70491C5B1EF9D1E1
:1042A00001E00B70491C521EFBD1A142E6D3002055
:1042B00030BD30B47446641E2578641CAB4200D215
:1042C0001D46635D5B00E31830BC184730380A2890
:1042D00001D20120704700207047000010B500296E
:1042E0000AD00878002807D005487844FFF7F6FC84
:1042F000002801D0002010BD0248784410BD000005
:104300005A02000052020000000100028000303119
:1043100032333435363738394142434445464030EC
:10432000580030313233343536373839616263649E
:1043300065664030780004000008000000000000BE
:1043400000020001000010004B2100004B41000062
:104350004D41000041420000444200005342000031
:10436000454300004D430000534300004444000017
:1043700050440000555047524144450041544D4F70
:10438000444500004B4500005445000055450000E1
:10439000444700004C4700004448000052480000D9
:1043A000444900004B4900004C49000050490000BE
:1043B0005249000055490000464C0000494D00009C
:1043C000534D00004F50454E000000004D4E000080
:1043D000554E0000504F000043500000554450001F
:1043E000445000004C5000004E5000004F50000060
:1043F0005050000052500000535000004252000044
:104400004552000046520000505200005452000035
:104410005652000044530000505300005353000014
:10442000434F4E4E4543540049540000424F4F54B1
:10443000000000005054000052540000535400008B
:1044400053560000445700004657000047570000ED
:1044500050570000445800004558000052532D3476
:1044600032322F343835000052532D3233322F542C
:10447000544C0000203E2053454743503A46575F76
:104480005550444154453A4641494C4544202D201D
:10449000496E76616C6964206669726D77617265D8
:1044A0002073697A653A20256420627974657320E7
:1044B000284669726D776172652073697A65206D2F
:1044C0007573742062652077697468696E2025644D
:1044D000206279746573290D0A000000203E205384
:1044E000454743503A46575F5550444154453A4634
:1044F00041494C4544202D20506C65617365207402
:10450000727920746F20465720557064617465205D
:10451000617420415050424F4F54206D6F64650DBF
:104520000A0000005446000000000020F0010000D6
:104530007842000064470000F0010020701900007C
:10454000EC0000001001000043000000F8FFFFFF36
:104550000040404040404040404041414141414096
:10456000404040404040404040404040404040404B
:1045700040050202020202020202020202020202DA
:1045800002202020202020202020200202020202DF
:104590000202909090909090101010101010101037
:1045A0001010101010101010101010100202020243
:1045B0000202888888888888080808080808080887
:1045C0000808080808080808080808080202020283
:1045D000400000000000000000000000000000009B
:1045E00000000000000000000000000000000000CB
:1045F00000000000000000000000000000000000BB
:1046000000000000000000000000000000000000AA
:10461000000000000000000000000000000000009A
:10462000000000000000000000000000000000008A
:10463000000000000000000000000000000000007A
:10464000000000000000000000000000000000006A
:1046500000000000A10217C03B0101573735303080
:1046600000C90D33CB0D33CD0D33CF0D33D10D43F9
:10467000D50D041D80004055FFFFFFFF420533BDEF
:1046800015333D1603199516071557495A6E65746B
:10469000332C4433C443332044337443337C437357
:1046A000DC4333644333104433CC4333BC4333ECF7
:1046B00043336C4333D84333D443339043334C4375
:1046C00033A44333844333B04333A84333C0433329
:1046D0004C4433144433AC4333F04333544433E059
:1046E0004333A04333444433984333E44333F443E4
:1046F000339C4333FC43335843330844335C4333E4
:10470000B843332844333444331844337043338834
:1047100043331C4433E84333F84343944332443334
:10472000484433504333504433404433584433387F
:104730004433D043333C443304443360433348432D
:10474000338C4333B44333544333684303170C442B
:1047500033684403145C44570202000101014244DF
:04476000424452423B
:020000040000FA
:107D000010B5F9F7FDFC10BD0000000010B5F9F743
:107D1000F8FC10BD10B5F9F7F5FC10BD10B5F9F77A
:107D2000F2FC10BD10B5F9F7EFFC10BD10B5F9F776
:107D3000ECFC10BD10B5F9F7E9FC10BD10B5F9F772
:107D4000E6FC10BD10B5F9F7E3FC10BD10B5F9F76E
:107D5000E0FC10BD10B5F9F7DDFC10BD10B5F9F76A
:107D6000DAFC10BD10B5F9F7D7FC10BD10B5F9F766
:107D7000D4FC10BD10B5F9F7D1FC10BD10B5F9F762
:107D8000CEFC10BD10B5F9F7CBFC10BD10B5F9F75E
:107D9000C8FC10BD10B5F9F7C5FC10BD10B5F9F75A
:107DA000C2FC10BD10B5F9F7BFFC10BD10B5F9F756
:107DB000BCFC10BD10B5F9F7B9FC10BD10B5F9F752
:107DC000B6FC10BD10B5F9F7B3FC10BD10B5F9F74E
:107DD000B0FC10BD10B5F9F7ADFC10BD10B5F9F74A
:107DE000AAFC10BD10B5F9F7A7FC10BD10B5F9F746
:047DF000A4FC10BD22
:04000005000000A94E
:00000001FF
